{
  "_format": "hh-sol-artifact-1",
  "contractName": "NFTEE",
  "sourceName": "contracts/NFTEE.sol",
  "abi": [
    {
      "inputs": [],
      "stateMutability": "nonpayable",
      "type": "constructor"
    },
    {
      "anonymous": false,
      "inputs": [
        {
          "indexed": true,
          "internalType": "address",
          "name": "owner",
          "type": "address"
        },
        {
          "indexed": true,
          "internalType": "address",
          "name": "approved",
          "type": "address"
        },
        {
          "indexed": true,
          "internalType": "uint256",
          "name": "tokenId",
          "type": "uint256"
        }
      ],
      "name": "Approval",
      "type": "event"
    },
    {
      "anonymous": false,
      "inputs": [
        {
          "indexed": true,
          "internalType": "address",
          "name": "owner",
          "type": "address"
        },
        {
          "indexed": true,
          "internalType": "address",
          "name": "operator",
          "type": "address"
        },
        {
          "indexed": false,
          "internalType": "bool",
          "name": "approved",
          "type": "bool"
        }
      ],
      "name": "ApprovalForAll",
      "type": "event"
    },
    {
      "anonymous": false,
      "inputs": [
        {
          "indexed": true,
          "internalType": "address",
          "name": "from",
          "type": "address"
        },
        {
          "indexed": true,
          "internalType": "address",
          "name": "to",
          "type": "address"
        },
        {
          "indexed": true,
          "internalType": "uint256",
          "name": "tokenId",
          "type": "uint256"
        }
      ],
      "name": "Transfer",
      "type": "event"
    },
    {
      "inputs": [
        {
          "internalType": "address",
          "name": "to",
          "type": "address"
        },
        {
          "internalType": "uint256",
          "name": "tokenId",
          "type": "uint256"
        }
      ],
      "name": "approve",
      "outputs": [],
      "stateMutability": "nonpayable",
      "type": "function"
    },
    {
      "inputs": [
        {
          "internalType": "address",
          "name": "owner",
          "type": "address"
        }
      ],
      "name": "balanceOf",
      "outputs": [
        {
          "internalType": "uint256",
          "name": "",
          "type": "uint256"
        }
      ],
      "stateMutability": "view",
      "type": "function"
    },
    {
      "inputs": [],
      "name": "current_round",
      "outputs": [
        {
          "internalType": "uint256",
          "name": "",
          "type": "uint256"
        }
      ],
      "stateMutability": "view",
      "type": "function"
    },
    {
      "inputs": [
        {
          "internalType": "uint256",
          "name": "tokenId",
          "type": "uint256"
        }
      ],
      "name": "getApproved",
      "outputs": [
        {
          "internalType": "address",
          "name": "",
          "type": "address"
        }
      ],
      "stateMutability": "view",
      "type": "function"
    },
    {
      "inputs": [
        {
          "internalType": "address",
          "name": "owner",
          "type": "address"
        },
        {
          "internalType": "address",
          "name": "operator",
          "type": "address"
        }
      ],
      "name": "isApprovedForAll",
      "outputs": [
        {
          "internalType": "bool",
          "name": "",
          "type": "bool"
        }
      ],
      "stateMutability": "view",
      "type": "function"
    },
    {
      "inputs": [
        {
          "internalType": "uint256",
          "name": "initial_liq",
          "type": "uint256"
        }
      ],
      "name": "mint",
      "outputs": [
        {
          "internalType": "uint256",
          "name": "",
          "type": "uint256"
        }
      ],
      "stateMutability": "nonpayable",
      "type": "function"
    },
    {
      "inputs": [],
      "name": "name",
      "outputs": [
        {
          "internalType": "string",
          "name": "",
          "type": "string"
        }
      ],
      "stateMutability": "view",
      "type": "function"
    },
    {
      "inputs": [
        {
          "internalType": "uint256",
          "name": "tokenId",
          "type": "uint256"
        }
      ],
      "name": "ownerOf",
      "outputs": [
        {
          "internalType": "address",
          "name": "",
          "type": "address"
        }
      ],
      "stateMutability": "view",
      "type": "function"
    },
    {
      "inputs": [
        {
          "internalType": "address",
          "name": "from",
          "type": "address"
        },
        {
          "internalType": "address",
          "name": "to",
          "type": "address"
        },
        {
          "internalType": "uint256",
          "name": "tokenId",
          "type": "uint256"
        }
      ],
      "name": "safeTransferFrom",
      "outputs": [],
      "stateMutability": "nonpayable",
      "type": "function"
    },
    {
      "inputs": [
        {
          "internalType": "address",
          "name": "from",
          "type": "address"
        },
        {
          "internalType": "address",
          "name": "to",
          "type": "address"
        },
        {
          "internalType": "uint256",
          "name": "tokenId",
          "type": "uint256"
        },
        {
          "internalType": "bytes",
          "name": "data",
          "type": "bytes"
        }
      ],
      "name": "safeTransferFrom",
      "outputs": [],
      "stateMutability": "nonpayable",
      "type": "function"
    },
    {
      "inputs": [
        {
          "internalType": "address",
          "name": "operator",
          "type": "address"
        },
        {
          "internalType": "bool",
          "name": "approved",
          "type": "bool"
        }
      ],
      "name": "setApprovalForAll",
      "outputs": [],
      "stateMutability": "nonpayable",
      "type": "function"
    },
    {
      "inputs": [
        {
          "internalType": "bytes4",
          "name": "interfaceId",
          "type": "bytes4"
        }
      ],
      "name": "supportsInterface",
      "outputs": [
        {
          "internalType": "bool",
          "name": "",
          "type": "bool"
        }
      ],
      "stateMutability": "view",
      "type": "function"
    },
    {
      "inputs": [],
      "name": "symbol",
      "outputs": [
        {
          "internalType": "string",
          "name": "",
          "type": "string"
        }
      ],
      "stateMutability": "view",
      "type": "function"
    },
    {
      "inputs": [
        {
          "internalType": "uint256",
          "name": "tokenId",
          "type": "uint256"
        }
      ],
      "name": "tokenURI",
      "outputs": [
        {
          "internalType": "string",
          "name": "",
          "type": "string"
        }
      ],
      "stateMutability": "view",
      "type": "function"
    },
    {
      "inputs": [
        {
          "internalType": "address",
          "name": "from",
          "type": "address"
        },
        {
          "internalType": "address",
          "name": "to",
          "type": "address"
        },
        {
          "internalType": "uint256",
          "name": "tokenId",
          "type": "uint256"
        }
      ],
      "name": "transferFrom",
      "outputs": [],
      "stateMutability": "nonpayable",
      "type": "function"
    },
    {
      "inputs": [],
      "name": "update_round",
      "outputs": [],
      "stateMutability": "nonpayable",
      "type": "function"
    },
    {
      "inputs": [
        {
          "internalType": "uint256",
          "name": "nftId",
          "type": "uint256"
        },
        {
          "internalType": "uint256",
          "name": "token",
          "type": "uint256"
        }
      ],
      "name": "vote",
      "outputs": [],
      "stateMutability": "nonpayable",
      "type": "function"
    }
  ],
  "bytecode": "0x6080604052606460085560646009553480156200001b57600080fd5b5060408051808201825260058152644e6674656560d81b6020808301918252835180850190945260038452624e544560e81b908401528151919291620000649160009162000083565b5080516200007a90600190602084019062000083565b50505062000166565b828054620000919062000129565b90600052602060002090601f016020900481019282620000b5576000855562000100565b82601f10620000d057805160ff191683800117855562000100565b8280016001018555821562000100579182015b8281111562000100578251825591602001919060010190620000e3565b506200010e92915062000112565b5090565b5b808211156200010e576000815560010162000113565b600181811c908216806200013e57607f821691505b602082108114156200016057634e487b7160e01b600052602260045260246000fd5b50919050565b61151f80620001766000396000f3fe608060405234801561001057600080fd5b506004361061010b5760003560e01c806370a08231116100a2578063b384abef11610071578063b384abef1461021d578063b88d4fde14610230578063c87b56dd14610243578063e985e9c514610256578063fe82ad2c1461029257600080fd5b806370a08231146101dc57806395d89b41146101ef578063a0712d68146101f7578063a22cb4651461020a57600080fd5b806323b872dd116100de57806323b872dd1461018d578063319c068c146101a057806342842e0e146101b65780636352211e146101c957600080fd5b806301ffc9a71461011057806306fdde0314610138578063081812fc1461014d578063095ea7b314610178575b600080fd5b61012361011e3660046111fc565b61029a565b60405190151581526020015b60405180910390f35b6101406102ec565b60405161012f9190611305565b61016061015b366004611234565b61037e565b6040516001600160a01b03909116815260200161012f565b61018b6101863660046111d3565b6103a5565b005b61018b61019b366004611089565b6104c0565b6101a86104f1565b60405190815260200161012f565b61018b6101c4366004611089565b610533565b6101606101d7366004611234565b61054e565b6101a86101ea36600461103d565b6105ae565b610140610634565b6101a8610205366004611234565b610643565b61018b610218366004611199565b61068a565b61018b61022b36600461124c565b610699565b61018b61023e3660046110c4565b6106b0565b610140610251366004611234565b6106e8565b610123610264366004611057565b6001600160a01b03918216600090815260056020908152604080832093909416825291909152205460ff1690565b61018b6107f9565b60006001600160e01b031982166380ac58cd60e01b14806102cb57506001600160e01b03198216635b5e139f60e01b145b806102e657506301ffc9a760e01b6001600160e01b03198316145b92915050565b6060600080546102fb90611427565b80601f016020809104026020016040519081016040528092919081815260200182805461032790611427565b80156103745780601f1061034957610100808354040283529160200191610374565b820191906000526020600020905b81548152906001019060200180831161035757829003601f168201915b5050505050905090565b600061038982610858565b506000908152600460205260409020546001600160a01b031690565b60006103b08261054e565b9050806001600160a01b0316836001600160a01b031614156104235760405162461bcd60e51b815260206004820152602160248201527f4552433732313a20617070726f76616c20746f2063757272656e74206f776e656044820152603960f91b60648201526084015b60405180910390fd5b336001600160a01b038216148061043f575061043f8133610264565b6104b15760405162461bcd60e51b815260206004820152603e60248201527f4552433732313a20617070726f76652063616c6c6572206973206e6f7420746f60448201527f6b656e206f776e6572206e6f7220617070726f76656420666f7220616c6c0000606482015260840161041a565b6104bb83836108ba565b505050565b6104ca3382610928565b6104e65760405162461bcd60e51b815260040161041a9061136a565b6104bb8383836109a6565b600c805460009190610505906001906113e4565b8154811061052357634e487b7160e01b600052603260045260246000fd5b9060005260206000200154905090565b6104bb838383604051806020016040528060008152506106b0565b6000818152600260205260408120546001600160a01b0316806102e65760405162461bcd60e51b8152602060048201526018602482015277115490cdcc8c4e881a5b9d985b1a59081d1bdad95b88125160421b604482015260640161041a565b60006001600160a01b0382166106185760405162461bcd60e51b815260206004820152602960248201527f4552433732313a2061646472657373207a65726f206973206e6f7420612076616044820152683634b21037bbb732b960b91b606482015260840161041a565b506001600160a01b031660009081526003602052604090205490565b6060600180546102fb90611427565b60008061064f60075490565b6000818152600a6020526040902084815560018101859055600954600290910155905061067c3382610b42565b6102e6600780546001019055565b610695338383610c84565b5050565b60006106a36104f1565b505050600052600a602052565b6106ba3383610928565b6106d65760405162461bcd60e51b815260040161041a9061136a565b6106e284848484610d53565b50505050565b60606106f382610858565b6000828152600660205260408120805461070c90611427565b80601f016020809104026020016040519081016040528092919081815260200182805461073890611427565b80156107855780601f1061075a57610100808354040283529160200191610785565b820191906000526020600020905b81548152906001019060200180831161076857829003601f168201915b5050505050905060006107a360408051602081019091526000815290565b90508051600014156107b6575092915050565b8151156107e85780826040516020016107d0929190611299565b60405160208183030381529060405292505050919050565b6107f184610d86565b949350505050565b600c8054819061080b906001906113e4565b8154811061082957634e487b7160e01b600052603260045260246000fd5b9060005260206000200154600161084091906113b8565b81546001810183556000928352602090922090910155565b6000818152600260205260409020546001600160a01b03166108b75760405162461bcd60e51b8152602060048201526018602482015277115490cdcc8c4e881a5b9d985b1a59081d1bdad95b88125160421b604482015260640161041a565b50565b600081815260046020526040902080546001600160a01b0319166001600160a01b03841690811790915581906108ef8261054e565b6001600160a01b03167f8c5be1e5ebec7d5bd14f71427d1e84f3dd0314c0f7b2291e5b200ac8c7c3b92560405160405180910390a45050565b6000806109348361054e565b9050806001600160a01b0316846001600160a01b0316148061097b57506001600160a01b0380821660009081526005602090815260408083209388168352929052205460ff165b806107f15750836001600160a01b03166109948461037e565b6001600160a01b031614949350505050565b826001600160a01b03166109b98261054e565b6001600160a01b031614610a1d5760405162461bcd60e51b815260206004820152602560248201527f4552433732313a207472616e736665722066726f6d20696e636f72726563742060448201526437bbb732b960d91b606482015260840161041a565b6001600160a01b038216610a7f5760405162461bcd60e51b8152602060048201526024808201527f4552433732313a207472616e7366657220746f20746865207a65726f206164646044820152637265737360e01b606482015260840161041a565b610a8a6000826108ba565b6001600160a01b0383166000908152600360205260408120805460019290610ab39084906113e4565b90915550506001600160a01b0382166000908152600360205260408120805460019290610ae19084906113b8565b909155505060008181526002602052604080822080546001600160a01b0319166001600160a01b0386811691821790925591518493918716917fddf252ad1be2c89b69c2b068fc378daa952ba7f163c4a11628f55a4df523b3ef91a4505050565b6001600160a01b038216610b985760405162461bcd60e51b815260206004820181905260248201527f4552433732313a206d696e7420746f20746865207a65726f2061646472657373604482015260640161041a565b6000818152600260205260409020546001600160a01b031615610bfd5760405162461bcd60e51b815260206004820152601c60248201527f4552433732313a20746f6b656e20616c7265616479206d696e74656400000000604482015260640161041a565b6001600160a01b0382166000908152600360205260408120805460019290610c269084906113b8565b909155505060008181526002602052604080822080546001600160a01b0319166001600160a01b03861690811790915590518392907fddf252ad1be2c89b69c2b068fc378daa952ba7f163c4a11628f55a4df523b3ef908290a45050565b816001600160a01b0316836001600160a01b03161415610ce65760405162461bcd60e51b815260206004820152601960248201527f4552433732313a20617070726f766520746f2063616c6c657200000000000000604482015260640161041a565b6001600160a01b03838116600081815260056020908152604080832094871680845294825291829020805460ff191686151590811790915591519182527f17307eab39ab6107e8899845ad3d59bd9653f200f220920489ca2b5937696c31910160405180910390a3505050565b610d5e8484846109a6565b610d6a84848484610dfa565b6106e25760405162461bcd60e51b815260040161041a90611318565b6060610d9182610858565b6000610da860408051602081019091526000815290565b90506000815111610dc85760405180602001604052806000815250610df3565b80610dd284610f07565b604051602001610de3929190611299565b6040516020818303038152906040525b9392505050565b60006001600160a01b0384163b15610efc57604051630a85bd0160e11b81526001600160a01b0385169063150b7a0290610e3e9033908990889088906004016112c8565b602060405180830381600087803b158015610e5857600080fd5b505af1925050508015610e88575060408051601f3d908101601f19168201909252610e8591810190611218565b60015b610ee2573d808015610eb6576040519150601f19603f3d011682016040523d82523d6000602084013e610ebb565b606091505b508051610eda5760405162461bcd60e51b815260040161041a90611318565b805181602001fd5b6001600160e01b031916630a85bd0160e11b1490506107f1565b506001949350505050565b606081610f2b5750506040805180820190915260018152600360fc1b602082015290565b8160005b8115610f555780610f3f81611462565b9150610f4e9050600a836113d0565b9150610f2f565b60008167ffffffffffffffff811115610f7e57634e487b7160e01b600052604160045260246000fd5b6040519080825280601f01601f191660200182016040528015610fa8576020820181803683370190505b5090505b84156107f157610fbd6001836113e4565b9150610fca600a8661147d565b610fd59060306113b8565b60f81b818381518110610ff857634e487b7160e01b600052603260045260246000fd5b60200101906001600160f81b031916908160001a90535061101a600a866113d0565b9450610fac565b80356001600160a01b038116811461103857600080fd5b919050565b60006020828403121561104e578081fd5b610df382611021565b60008060408385031215611069578081fd5b61107283611021565b915061108060208401611021565b90509250929050565b60008060006060848603121561109d578081fd5b6110a684611021565b92506110b460208501611021565b9150604084013590509250925092565b600080600080608085870312156110d9578081fd5b6110e285611021565b93506110f060208601611021565b925060408501359150606085013567ffffffffffffffff80821115611113578283fd5b818701915087601f830112611126578283fd5b813581811115611138576111386114bd565b604051601f8201601f19908116603f01168101908382118183101715611160576111606114bd565b816040528281528a6020848701011115611178578586fd5b82602086016020830137918201602001949094529598949750929550505050565b600080604083850312156111ab578182fd5b6111b483611021565b9150602083013580151581146111c8578182fd5b809150509250929050565b600080604083850312156111e5578182fd5b6111ee83611021565b946020939093013593505050565b60006020828403121561120d578081fd5b8135610df3816114d3565b600060208284031215611229578081fd5b8151610df3816114d3565b600060208284031215611245578081fd5b5035919050565b6000806040838503121561125e578182fd5b50508035926020909101359150565b600081518084526112858160208601602086016113fb565b601f01601f19169290920160200192915050565b600083516112ab8184602088016113fb565b8351908301906112bf8183602088016113fb565b01949350505050565b6001600160a01b03858116825284166020820152604081018390526080606082018190526000906112fb9083018461126d565b9695505050505050565b602081526000610df3602083018461126d565b60208082526032908201527f4552433732313a207472616e7366657220746f206e6f6e20455243373231526560408201527131b2b4bb32b91034b6b83632b6b2b73a32b960711b606082015260800190565b6020808252602e908201527f4552433732313a2063616c6c6572206973206e6f7420746f6b656e206f776e6560408201526d1c881b9bdc88185c1c1c9bdd995960921b606082015260800190565b600082198211156113cb576113cb611491565b500190565b6000826113df576113df6114a7565b500490565b6000828210156113f6576113f6611491565b500390565b60005b838110156114165781810151838201526020016113fe565b838111156106e25750506000910152565b600181811c9082168061143b57607f821691505b6020821081141561145c57634e487b7160e01b600052602260045260246000fd5b50919050565b600060001982141561147657611476611491565b5060010190565b60008261148c5761148c6114a7565b500690565b634e487b7160e01b600052601160045260246000fd5b634e487b7160e01b600052601260045260246000fd5b634e487b7160e01b600052604160045260246000fd5b6001600160e01b0319811681146108b757600080fdfea2646970667358221220a1a308f8bb14f58b0f0d1b2b2bed598f3b6560a705a8a2ad16376a3a49862f4864736f6c63430008040033",
  "linkReferences": {},
  "deployedLinkReferences": {}
}